{
  "contractName": "Lottery",
  "abi": [
    {
      "inputs": [],
      "stateMutability": "nonpayable",
      "type": "constructor"
    },
    {
      "inputs": [
        {
          "internalType": "uint256",
          "name": "",
          "type": "uint256"
        }
      ],
      "name": "lotteryHistory",
      "outputs": [
        {
          "internalType": "address",
          "name": "",
          "type": "address"
        }
      ],
      "stateMutability": "view",
      "type": "function",
      "constant": true
    },
    {
      "inputs": [],
      "name": "lotteryId",
      "outputs": [
        {
          "internalType": "uint256",
          "name": "",
          "type": "uint256"
        }
      ],
      "stateMutability": "view",
      "type": "function",
      "constant": true
    },
    {
      "inputs": [],
      "name": "owner",
      "outputs": [
        {
          "internalType": "address",
          "name": "",
          "type": "address"
        }
      ],
      "stateMutability": "view",
      "type": "function",
      "constant": true
    },
    {
      "inputs": [
        {
          "internalType": "uint256",
          "name": "",
          "type": "uint256"
        }
      ],
      "name": "players",
      "outputs": [
        {
          "internalType": "address payable",
          "name": "",
          "type": "address"
        }
      ],
      "stateMutability": "view",
      "type": "function",
      "constant": true
    },
    {
      "inputs": [],
      "name": "enter",
      "outputs": [],
      "stateMutability": "payable",
      "type": "function",
      "payable": true
    },
    {
      "inputs": [],
      "name": "getBalance",
      "outputs": [
        {
          "internalType": "uint256",
          "name": "",
          "type": "uint256"
        }
      ],
      "stateMutability": "view",
      "type": "function",
      "constant": true
    },
    {
      "inputs": [],
      "name": "getPlayers",
      "outputs": [
        {
          "internalType": "address payable[]",
          "name": "",
          "type": "address[]"
        }
      ],
      "stateMutability": "view",
      "type": "function",
      "constant": true
    },
    {
      "inputs": [],
      "name": "getRandomNumber",
      "outputs": [
        {
          "internalType": "uint256",
          "name": "",
          "type": "uint256"
        }
      ],
      "stateMutability": "view",
      "type": "function",
      "constant": true
    },
    {
      "inputs": [],
      "name": "getRandomNumberV2",
      "outputs": [
        {
          "internalType": "uint256",
          "name": "",
          "type": "uint256"
        }
      ],
      "stateMutability": "view",
      "type": "function",
      "constant": true
    },
    {
      "inputs": [],
      "name": "getRandomNumberV3",
      "outputs": [
        {
          "internalType": "uint256",
          "name": "",
          "type": "uint256"
        }
      ],
      "stateMutability": "view",
      "type": "function",
      "constant": true
    },
    {
      "inputs": [],
      "name": "pickWinner",
      "outputs": [],
      "stateMutability": "nonpayable",
      "type": "function"
    }
  ],
  "bytecode": "0x608060405234801561001057600080fd5b50336000806101000a81548173ffffffffffffffffffffffffffffffffffffffff021916908373ffffffffffffffffffffffffffffffffffffffff16021790555061100a806100606000396000f3fe60806040526004361061009c5760003560e01c80638b5b9ccc116100645780638b5b9ccc146101765780638da5cb5b146101a1578063dbdff2c1146101cc578063e580f47b146101f7578063e97dcb6214610222578063f71d96cb1461022c5761009c565b806312065fe0146100a157806347b89533146100cc5780635d495aea146100f75780636793aa141461010e5780636d6fe23014610139575b600080fd5b3480156100ad57600080fd5b506100b6610269565b6040516100c39190610876565b60405180910390f35b3480156100d857600080fd5b506100e1610271565b6040516100ee9190610876565b60405180910390f35b34801561010357600080fd5b5061010c6102b1565b005b34801561011a57600080fd5b50610123610553565b6040516101309190610876565b60405180910390f35b34801561014557600080fd5b50610160600480360381019061015b91906108c2565b610589565b60405161016d9190610930565b60405180910390f35b34801561018257600080fd5b5061018b6105bc565b6040516101989190610a1b565b60405180910390f35b3480156101ad57600080fd5b506101b661064a565b6040516101c39190610930565b60405180910390f35b3480156101d857600080fd5b506101e161066e565b6040516101ee9190610876565b60405180910390f35b34801561020357600080fd5b5061020c6106c2565b6040516102199190610876565b60405180910390f35b61022a6106c8565b005b34801561023857600080fd5b50610253600480360381019061024e91906108c2565b610777565b6040516102609190610a4c565b60405180910390f35b600047905090565b60006001436102809190610a96565b4042604051602001610293929190610b16565b6040516020818303038152906040528051906020012060001c905090565b60008054906101000a900473ffffffffffffffffffffffffffffffffffffffff1673ffffffffffffffffffffffffffffffffffffffff163373ffffffffffffffffffffffffffffffffffffffff161461033f576040517f08c379a000000000000000000000000000000000000000000000000000000000815260040161033690610b9f565b60405180910390fd5b600060018054905061034f61066e565b6103599190610bee565b90506001818154811061036f5761036e610c1f565b5b9060005260206000200160009054906101000a900473ffffffffffffffffffffffffffffffffffffffff1660036000600254815260200190815260200160002060006101000a81548173ffffffffffffffffffffffffffffffffffffffff021916908373ffffffffffffffffffffffffffffffffffffffff1602179055506002600081548092919061040090610c4e565b919050555060006001828154811061041b5761041a610c1f565b5b9060005260206000200160009054906101000a900473ffffffffffffffffffffffffffffffffffffffff1673ffffffffffffffffffffffffffffffffffffffff164760405161046990610cc7565b60006040518083038185875af1925050503d80600081146104a6576040519150601f19603f3d011682016040523d82523d6000602084013e6104ab565b606091505b50509050806104ef576040517f08c379a00000000000000000000000000000000000000000000000000000000081526004016104e690610d28565b60405180910390fd5b600067ffffffffffffffff81111561050a57610509610d48565b5b6040519080825280602002602001820160405280156105385781602001602082028036833780820191505090505b506001908051906020019061054e9291906107b6565b505050565b60004442600160405160200161056b93929190610e95565b6040516020818303038152906040528051906020012060001c905090565b60036020528060005260406000206000915054906101000a900473ffffffffffffffffffffffffffffffffffffffff1681565b6060600180548060200260200160405190810160405280929190818152602001828054801561064057602002820191906000526020600020905b8160009054906101000a900473ffffffffffffffffffffffffffffffffffffffff1673ffffffffffffffffffffffffffffffffffffffff16815260200190600101908083116105f6575b5050505050905090565b60008054906101000a900473ffffffffffffffffffffffffffffffffffffffff1681565b60008060009054906101000a900473ffffffffffffffffffffffffffffffffffffffff16426040516020016106a4929190610f16565b6040516020818303038152906040528051906020012060001c905090565b60025481565b662386f26fc10000341015610712576040517f08c379a000000000000000000000000000000000000000000000000000000000815260040161070990610fb4565b60405180910390fd5b6001339080600181540180825580915050600190039060005260206000200160009091909190916101000a81548173ffffffffffffffffffffffffffffffffffffffff021916908373ffffffffffffffffffffffffffffffffffffffff160217905550565b6001818154811061078757600080fd5b906000526020600020016000915054906101000a900473ffffffffffffffffffffffffffffffffffffffff1681565b82805482825590600052602060002090810192821561082f579160200282015b8281111561082e5782518260006101000a81548173ffffffffffffffffffffffffffffffffffffffff021916908373ffffffffffffffffffffffffffffffffffffffff160217905550916020019190600101906107d6565b5b50905061083c9190610840565b5090565b5b80821115610859576000816000905550600101610841565b5090565b6000819050919050565b6108708161085d565b82525050565b600060208201905061088b6000830184610867565b92915050565b600080fd5b61089f8161085d565b81146108aa57600080fd5b50565b6000813590506108bc81610896565b92915050565b6000602082840312156108d8576108d7610891565b5b60006108e6848285016108ad565b91505092915050565b600073ffffffffffffffffffffffffffffffffffffffff82169050919050565b600061091a826108ef565b9050919050565b61092a8161090f565b82525050565b60006020820190506109456000830184610921565b92915050565b600081519050919050565b600082825260208201905092915050565b6000819050602082019050919050565b6000610982826108ef565b9050919050565b61099281610977565b82525050565b60006109a48383610989565b60208301905092915050565b6000602082019050919050565b60006109c88261094b565b6109d28185610956565b93506109dd83610967565b8060005b83811015610a0e5781516109f58882610998565b9750610a00836109b0565b9250506001810190506109e1565b5085935050505092915050565b60006020820190508181036000830152610a3581846109bd565b905092915050565b610a4681610977565b82525050565b6000602082019050610a616000830184610a3d565b92915050565b7f4e487b7100000000000000000000000000000000000000000000000000000000600052601160045260246000fd5b6000610aa18261085d565b9150610aac8361085d565b925082821015610abf57610abe610a67565b5b828203905092915050565b6000819050919050565b6000819050919050565b610aef610aea82610aca565b610ad4565b82525050565b6000819050919050565b610b10610b0b8261085d565b610af5565b82525050565b6000610b228285610ade565b602082019150610b328284610aff565b6020820191508190509392505050565b600082825260208201905092915050565b7f552072206e6f74206f776e657200000000000000000000000000000000000000600082015250565b6000610b89600d83610b42565b9150610b9482610b53565b602082019050919050565b60006020820190508181036000830152610bb881610b7c565b9050919050565b7f4e487b7100000000000000000000000000000000000000000000000000000000600052601260045260246000fd5b6000610bf98261085d565b9150610c048361085d565b925082610c1457610c13610bbf565b5b828206905092915050565b7f4e487b7100000000000000000000000000000000000000000000000000000000600052603260045260246000fd5b6000610c598261085d565b91507fffffffffffffffffffffffffffffffffffffffffffffffffffffffffffffffff8203610c8b57610c8a610a67565b5b600182019050919050565b600081905092915050565b50565b6000610cb1600083610c96565b9150610cbc82610ca1565b600082019050919050565b6000610cd282610ca4565b9150819050919050565b7f4661696c656420746f2073656e64204554480000000000000000000000000000600082015250565b6000610d12601283610b42565b9150610d1d82610cdc565b602082019050919050565b60006020820190508181036000830152610d4181610d05565b9050919050565b7f4e487b7100000000000000000000000000000000000000000000000000000000600052604160045260246000fd5b600081549050919050565b600081905092915050565b60008190508160005260206000209050919050565b610dab81610977565b82525050565b6000610dbd8383610da2565b60208301905092915050565b60008160001c9050919050565b600073ffffffffffffffffffffffffffffffffffffffff82169050919050565b6000610e09610e0483610dc9565b610dd6565b9050919050565b6000610e1c8254610df6565b9050919050565b6000600182019050919050565b6000610e3b82610d77565b610e458185610d82565b9350610e5083610d8d565b8060005b83811015610e8857610e6582610e10565b610e6f8882610db1565b9750610e7a83610e23565b925050600181019050610e54565b5085935050505092915050565b6000610ea18286610aff565b602082019150610eb18285610aff565b602082019150610ec18284610e30565b9150819050949350505050565b60008160601b9050919050565b6000610ee682610ece565b9050919050565b6000610ef882610edb565b9050919050565b610f10610f0b8261090f565b610eed565b82525050565b6000610f228285610eff565b601482019150610f328284610aff565b6020820191508190509392505050565b7f6d73672e76616c75652073686f756c642062652067726561746572207468616e60008201527f206f7220657175616c20746f20302e3031204554480000000000000000000000602082015250565b6000610f9e603583610b42565b9150610fa982610f42565b604082019050919050565b60006020820190508181036000830152610fcd81610f91565b905091905056fea2646970667358221220879038f49e5bf6ce000064ef5b809b667fac2a2b584f4ff2d3b3920b452f8dc364736f6c634300080f0033",
  "immutableReferences": {},
  "source": "// SPDX-License-Identifier: MIT\npragma solidity ^0.8.15;\n\ncontract Lottery {\n    address public owner;\n    address payable[] public players;\n    uint256 public lotteryId;\n    mapping(uint256 => address) public lotteryHistory;\n\n\n    constructor() {\n        owner = msg.sender;\n    }\n\n    function enter() public payable {\n        require(msg.value >= .01 ether, \"msg.value should be greater than or equal to 0.01 ETH\");\n        players.push(payable(msg.sender));\n    }\n\n    function getBalance() public view returns (uint256) {\n        return address(this).balance;\n    }\n\n    function getPlayers() public view returns (address payable[] memory) {\n        return players;\n    }\n    \n    function getRandomNumber() public view returns (uint256) {\n        return uint256(keccak256(abi.encodePacked(owner, block.timestamp)));\n    }\n\n\n    function getRandomNumberV2() public view returns (uint256) {\n        return uint256(keccak256(abi.encodePacked(block.difficulty, block.timestamp, players)));\n    }\n\n    function getRandomNumberV3() public view returns (uint256) {\n        return uint256(keccak256(abi.encodePacked(blockhash(block.number - 1), block.timestamp)));\n    }\n\n    function pickWinner() public onlyOwner {\n        uint256 index = getRandomNumber() % players.length;\n        lotteryHistory[lotteryId] = players[index];\n        lotteryId++;\n\n        (bool success, ) = players[index].call{ value : address(this).balance }(\"\");\n        require(success, \"Failed to send ETH\");\n\n        players = new address payable[](0);\n    }\n\n    modifier onlyOwner {\n        require(msg.sender == owner, \"U r not owner\");\n        _;\n    }\n}",
  "sourcePath": "/Users/bk/Desktop/Dev/career/BlockChain/lottery/lottery-truffle/contracts/Lottery.sol",
  "compiler": {
    "name": "solc",
    "version": "0.8.15+commit.e14f2714.Emscripten.clang"
  },
  "schemaVersion": "3.4.8",
  "updatedAt": "2023-07-20T15:21:33.529Z",
  "networkType": "ethereum",
  "devdoc": {
    "kind": "dev",
    "methods": {},
    "version": 1
  },
  "userdoc": {
    "kind": "user",
    "methods": {},
    "version": 1
  }
}